:1010000040460220A1750100A9EF06008D75010080
:101010008D7501008D7501008D75010000000000C7
:101020000000000000000000000000001D7701002B
:101030008D75010000000000B97601008D7501007A
:1010400025790100E5EF06002579010025790100E9
:101050002579010025790100257901002579010014
:10106000E5EF06002579010025790100E5EF06008E
:1010700025790100257901002579010025790100F4
:1010800025790100257901002579010025790100E4
:1010900025790100257901002579010025790100D4
:1010A00025790100257901002579010025790100C4
:1010B00025790100257901002579010025790100B4
:1010C00025790100257901002579010025790100A4
:1010D0002579010025790100257901002579010094
:1010E0002579010025790100257901002579010084
:1010F0002579010025790100257901002579010074
:1011000001F0FF01102A2BDB10F0070F08D010F8B8
:10111000013B013A8B422DD010F0070F42B3F6D1BC
:10112000F0B441EA012141EA014122F007047FF0D5
:1011300000070023F0E80256083C85EA010586EA2C
:10114000010685FA47F5A3FA87F586FA47F6A5FA68
:1011500087F68EB9EED1F0BC01F0FF0102F0070274
:1011600032B110F8013B013A83EA010313B1F8D11F
:101170000020704701387047002D06BF3546033800
:10118000073815F0010F07D1013015F4807F02BF39
:10119000013015F4C03F0130F0BC0138704700BF8A
:1011A00080EA101404F0F01480EA0410604081EA30
:1011B000111404F0F01481EA0411614082EA12145F
:1011C00004F0F01482EA0412624083EA131404F07B
:1011D000F01483EA0413634080EA102404F47F448B
:1011E00080EA0420604081EA112404F47F4481EA0B
:1011F0000421614082EA122404F47F4482EA04223A
:10120000624083EA132404F47F4483EA04236340A6
:1012100081EA500404F0553480EA4400614083EAD6
:10122000520404F0553482EA4402634082EA900496
:1012300004F0333480EA8400624083EA910404F0CD
:10124000333481EA84016340704700BF82EA90042E
:1012500004F0333480EA8400624083EA910404F0AD
:10126000333481EA8401634081EA500404F0553448
:1012700080EA4400614083EA520404F0553482EA73
:101280004402634080EA102404F47F4480EA04208E
:10129000604081EA112404F47F4481EA0421614022
:1012A00082EA122404F47F4482EA0422624083EA40
:1012B000132404F47F4483EA0423634080EA101477
:1012C00004F0F01480EA0410604081EA111404F084
:1012D000F01481EA0411614082EA121404F0F0145F
:1012E00082EA0412624083EA131404F0F01483EAE1
:1012F00004136340704700BF2DE9F14F94464FEA55
:10130000930B8A68CB6808684968FFF749FF0BF1BF
:10131000060E33E083EA134480EA134582EA13475A
:1013200046BA96EA3444604000F00F1684EA063468
:1013300020F00F1684EA161054BA94EA010672409F
:1013400002F00F1486EA043622F00F1486EA141213
:101350004CBA6540694001F00F1485EA043521F06C
:101360000F1485EA14115CBA67407B4003F00F1438
:1013700087EA043723F00F1487EA1413BCE8F0005F
:101380006040694072407B4000F0E03400F010356E
:1013900000F00F3040EA540040EAC50080EA9004B3
:1013A00004F0332480EA8400604001F0E03401F06E
:1013B000103501F00F3141EA540141EAC50181EADB
:1013C000910404F0332481EA8401614002F0E034A6
:1013D00002F0103502F00F3242EA540242EAC5022E
:1013E00082EA920404F0332482EA8402624003F029
:1013F000E03403F0103503F00F3343EA540343EABB
:10140000C50383EA930404F0332483EA840363402E
:1014100081EA324787EA134581EA354690EA0604B5
:1014200084EA034B82EA1B4280EA044484EA0544CE
:1014300083EA144A85EA14448BEA044B84EA37446D
:1014400081EA0B4181EA164104EA0A00454082EA3A
:1014500004082BEA080041408AEA0B0602EA06006B
:1014600084EA34438AEA3A4603EA0607784045406C
:10147000414088EA38478BEA3B4007EA000985EAA1
:10148000090583EA0709464006EA0906714085EA2C
:10149000010005EA3546464006EA314181EA30411D
:1014A00081EA364606EA304686EA3546344008EA9E
:1014B000010886EA01052A4086EA364003405A4080
:1014C00081EA31431F407C4080EA030709EA0709AB
:1014D00088EA0908544088EA020806EA0A0601EA8E
:1014E0000B018AEA0B0215408AEA3A421040454055
:1014F0008BEA3B4003405E404240174079404D40FC
:101500004E40E443F64386EA18435D4085EA0540D1
:1015100083EA134386EA034183EA384284EA1143AB
:1015200083EA04435FEA3343BEF1010E3FF6F2AEB5
:101530001ED4BCE8F0006040694072407B4020BC93
:10154000FFF784FE28606960AA60EB60BDE8F08F59
:101550002DE9E0414FF2F00280EA1031114080EABB
:101560000130484041088208C3084FF0000E4FE7A1
:1015700000F0113001F0113102F0113203F011339B
:1015800040EA410040EA820040EAC3004FF2F00224
:1015900080EA1031114080EA01304840BDE8E08126
:1015A0002DE9F04F02F11C050646074600EB8508C1
:1015B00051F8040B043A46F8040BF9D14FF0010C32
:1015C000FFF7C6FF5FEA302080EA0C001ECF4140E3
:1015D0004A4053405C401EC62000464517D04FEAA3
:1015E0004C0C1CF4807F18BFACF1E50C2C2DE7D01F
:1015F0003C2D06D1FFF7ACFF06CF41404A4006C65E
:10160000100006CF41404A4006C61000D8E736E930
:101610000F00FFF7C5FD043D86E80F00F7D1BDE8D8
:10162000F08F00BF2DE9F14F03F11C0402EB840C95
:101630004FEA930B8A68CB6808684968FFF7B0FDEA
:101640003CE9F0006040694072407B400BF1060EBF
:101650004EE083EA134480EA134582EA134746BA10
:1016600096EA3444604000F00F1684EA063420F015
:101670000F1684EA161054BA94EA0106724002F07A
:101680000F1486EA043622F00F1486EA14124CBABC
:101690006540694001F00F1485EA043521F00F140C
:1016A00085EA14115CBA67407B4003F00F1487EAA7
:1016B000043723F00F1487EA141344BA44404DBA98
:1016C0004D4056BA56405FBA5F4087EA174886EAEF
:1016D000174B84EA17464FEA38488BEA1B4485EAE1
:1016E0001B4788EA1B4580EA3440694072407B40D2
:1016F00000F0703400F0803500F00F3040EA440014
:1017000040EAD50080EA900404F0332480EA8400A3
:10171000604001F0703401F0803501F00F3141EA92
:10172000440141EAD50181EA910404F0332481EABD
:101730008401614002F0703402F0803502F00F3213
:1017400042EA440242EAD50282EA920404F03324D7
:1017500082EA8402624003F0703403F0803503F0C3
:101760000F3343EA440343EAD50383EA930404F0C6
:10177000332483EA84036340C943DB4381EA0004E2
:1017800083EA044686EA020183EA014382EA33459A
:1017900083EA14435C4084EA00077FEA040A8AEA89
:1017A000024A8AEA010B87EA11488AEA374A80EA44
:1017B000060181EA1A418AEA030A04EA0A0045405E
:1017C00088EA040707EA0B0041408AEA0B0608EAA8
:1017D000060084EA34428AEA3A4602EA060358409E
:1017E0004540414087EA37438BEA3B4003EA000922
:1017F00085EA090582EA0309464006EA09067140BE
:1018000085EA010005EA3546464006EA314181EAAB
:10181000304181EA364606EA304686EA35463440AB
:101820000F4086EA010508EA050886EA36400240CC
:1018300088EA020881EA314213405C4080EA0203F0
:1018400009EA030987EA0907674088EA040806EA03
:101850000A0601EA0B018AEA0B0425408AEA3A44A7
:10186000204045408BEA3B4B02EA0B02564084EA9B
:101870000B04234059406E40694087EA364080EAB5
:10188000384080EA060380EA104481EA134585EA7D
:10189000344585EA17427D4082EA354180EA0540B9
:1018A0003CE9F0006040694072407B40BEF1010EAF
:1018B0003FF6CFAE20BCFFF7C9FC28606960AA6084
:1018C000EB60BDE8F08F00BFFFF76ABE70B491E82F
:1018D0007800B2E802105B1854EB0C04B2E8021076
:1018E0004D4156EB0C0680E878008041013070BC19
:1018F000704700BF70B491E87800B2E802105B1A3C
:1019000074EB0C04B2E802108D4176EB0C0680E813
:1019100078008041404270BC704700BF2DE9F0075D
:1019200091E80017C0CAA8FB063440F8043BA9FBA5
:101930000615E8FB6741EAFB665140F8044BA9FB3A
:101940000743ECFB661344CAE8FB6254EAFB6714E6
:10195000ECFB673440F8045BA9FB0275EAFB6235D7
:10196000ECFB6245E8FB6617E9FB6637EAFB664776
:10197000ECFB6657BAC0BDE8F00770472DE9F007E9
:1019800091E8F807B2E802105B1854EB0C04B2E8D7
:1019900002104D4156EB0C06B2E802104F4158EBD5
:1019A0000C08B2E8021059EB01095AEB0C0A80E866
:1019B000F80780410130BDE8F00770472DE9F007D6
:1019C00091E8F807B2E802105B1A74EB0C04B2E875
:1019D00002108D4176EB0C06B2E802108F4178EBD5
:1019E0000C08B2E8021079EB01097AEB0C0A80E8E6
:1019F000F80780414042BDE8F00770472DE9F00745
:101A0000524290E87800B1E880071740DB1918EAE5
:101A1000020854EB080419EA020955EB09051AEA11
:101A2000020A56EB0A0678C090E87800B1E8800711
:101A300017407B4118EA020854EB080419EA02092E
:101A400055EB09051AEA020A56EB0A0678C08041EE
:101A50000130BDE8F00770472DE9F007524290E8E9
:101A60007800B1E880071740DB1B18EA020874EB26
:101A7000080419EA020975EB09051AEA020A76EB6D
:101A80000A0678C090E87800B1E880071740BB41AB
:101A900018EA020874EB080419EA020975EB090553
:101AA0001AEA020A76EB0A0678C080414042BDE895
:101AB000F00770472DE9F00152424FF0040890E81A
:101AC000300091E8C000A31B1340E41AF618EB1B8A
:101AD0001340ED1AFF1830C0C0C1B8F10108EED1B3
:101AE000BDE8F001704700BF00B592E8DC072DE9C2
:101AF000DC07B1E8805702B4A7FB02510A95A8FBA6
:101B0000020BE7FB6310E9FB62B00B91A8FB0351EA
:101B1000EAFB6201E7FB64B5E7FB6605E8FB6615D7
:101B2000CDF830B0A9FB03B6EAFB6316ECFB6356B5
:101B3000E8FB640BE9FB641BEAFB645BECFB646B96
:101B40000D90ACFB0230059CEEFB6250E9FB64603B
:101B5000EAFB64B0E7FB6431E8FB6451069CE8FBF8
:101B60006461E9FB64B1EAFB64010E93A7FB0432F4
:101B7000079CE7FB6462E8FB64B2E9FB6402EAFBF2
:101B80006412049CE9FB6453EAFB6463089CE7FB72
:101B900064B3E8FB6403E9FB6413EAFB64230F9579
:101BA0005DF8049B99E80006DDF80080A9FB085465
:101BB000EAFB68B4DDF81080ECFB6804EEFB681407
:101BC000E9FB6824EAFB6834DDF80480EEFB686515
:101BD000E9FB68B5EAFB6805DDF81480ECFB6815E5
:101BE000EEFB6825E9FB6835EAFB68450F96DDF8F2
:101BF0000880AEFB0876E9FB6806EAFB6816DDF8AC
:101C00001880ECFB6826EEFB6836E9FB6846EAFBC9
:101C10006856DDF80C80ECFB68B7EEFB6807E9FB63
:101C20006817EAFB6827DDF81C80ECFB6837EEFBE1
:101C30006847E9FB6857EAFB686708B000BD00BF6A
:101C40002DE9F14F87B0FFF74FFFDDF81C8008F159
:101C5000200888E8FF00FFBC87E87F08BDE8F08F18
:101C600000B591E89857A3FB03520195A3FB04012B
:101C7000E3FB6420E3FB67100292A3FB0752E3FB44
:101C80006802E4FB6415E3FB6805E3FB6925039147
:101C9000A4FB07B6E3FB6926E3FB6A56E4FB670B8C
:101CA000E4FB682BE3FB6A5BE3FB6C6B0490A4FB37
:101CB0000810E4FB6950E3FB6C60E3FB6EB0E7FBEC
:101CC0006721E4FB6951E4FB6A61E3FB6EB1E4FB6D
:101CD0006E010592A7FB0832E4FB6A62E4FB6CB27A
:101CE000E4FB6E02E7FB6E12E7FB6853E7FB6963F8
:101CF000E4FB6CB3E7FB6C03E7FB6E13E8FB6E23BE
:101D00000695A7FB0954E7FB6AB4E7FB6C04E8FB04
:101D10006C14E8FB6E24E9FB6E34E8FB6865E7FBB6
:101D20006AB5E8FB6A05E8FB6C15E9FB6C25E9FB85
:101D30006E35EAFB6E450796A8FB0976E8FB6A0656
:101D4000E9FB6A16E9FB6C26EAFB6C36EAFB6E4699
:101D5000ECFB6E56E8FB69B7E9FB6907E9FB6A171C
:101D6000EAFB6A27EAFB6C37ECFB6C47ECFB6E572F
:101D7000EEFB6E6700BD00BF2DE9F14F87B0FFF7A6
:101D80006FFFDDF81C8008F1200888E8FF00FFBC29
:101D900087E87F08BDE8F08F30B44FF0000310F8FB
:101DA000014B11F8015B013A84EA050443EA04039C
:101DB000F5D1A3F101034FEAD37030BC704700BFE7
:101DC0004FF0000310F8012B013943EA0203F9D167
:101DD000A3F101034FEAD370704700BF30B411F88C
:101DE000014B12F8015B6C4000F8014B013BF6D14E
:101DF00030BC70472DE9F00791E8F807B2E802100F
:101E00005B1854EB0C04B2E802104D4156EB0C0683
:101E1000B2E802104F4158EB0C08B2E8021059EB3F
:101E200001095AEB0C0A8941B3F1FF3374F1FF3415
:101E300075F1FF3576F1000677F1000778F10008BB
:101E400079F101097AF1FF3A51F100015B184C4137
:101E50004D4156F1000657F1000758F1000859EBC3
:101E6000D1795AEB010A80E8F807BDE8F00770471E
:101E70002DE9F00791E8F807B2E802105B1A74EB5D
:101E80000C04B2E802108D4176EB0C06B2E80210A9
:101E90008F4178EB0C08B2E8021079EB01097AEB7C
:101EA0000C0A89415B184C414D4156F1000657F12F
:101EB000000758F1000859EBD1795AEB010A80E884
:101EC000F807BDE8F007704718EB040859EB05095F
:101ED0005AEB060A5BEB070B5FF0000C4CF1000CB1
:101EE00018EB050859EB06095AEB070A5BEB070BE1
:101EF00050EB0C005FF0000C51EB0C0152EB0C02AC
:101F000063414CF1000CB8EB070879F100097AF154
:101F1000000A7BEB040BA841B141A241B3416CF133
:101F2000000CBBEB050BB041B941AA41BB416CF1C0
:101F3000000C4CF001068CF0020718EB060859EB78
:101F40006C095AEB6C0A7BEB6C0B70EB6C0471EB5D
:101F50006C0572EB670653EB6C076CEB6C0C18EBC3
:101F60000C0059EB0C015AEB0C025BF1000354F12D
:101F7000000455F1000556EBDC7657EB0C07704773
:101F80002DE9F14F87B0FFF7AFFDDDF81080DDF8E8
:101F90001490DDF818A0FFF797FFBDE8000FFFF7DA
:101FA00093FF03B05DF8048B88E8FF00BDE8F08F75
:101FB0002DE9F14F87B0FFF753FEDDF81080DDF813
:101FC0001490DDF818A0FFF77FFFBDE8000FFFF7C2
:101FD0007BFF03B05DF8048B88E8FF00BDE8F08F5D
:101FE0002DE9F14FF8C892E8005E19EB03095AEBAE
:101FF000040A5BEB050B5CEB060C4EEB070E91E85D
:10200000E001A9FB0502AAFB0543E9FB6624EAFB04
:102010006634A9FB0765E9FB6845B1E80003EBFB03
:102020006836ECFB6846EEFB6856ABFB0987ECFBB9
:102030006957EEFB696791E80202EAFB6148EBFB36
:102040006158ECFB6168EEFB61784FF00001EAFB40
:102050000951EBFB6961ECFB6971EEFB69814FF49F
:10206000A03C4FEA154949EA06495FF0000AE9FB3E
:102070000C0A4FEA164646EA0746E6FB6C2A4FEA88
:10208000174747EA0847E7FB6C3A4FEA184848EA1F
:102090000148E8FB6C4AADB25544AF0805F00305B2
:1020A00007EB8707C01952F1000153F1000254F108
:1020B000000345F1000420BC1FC5BDE8F08F00BF40
:1020C00030B490E83C10511D53F1000154F100016F
:1020D00055F100014CF100014FEA9101494201F034
:1020E0000501521853F1000354F1000455F10005A5
:1020F0004CF1000C0CF0030C80E83C1030BC704735
:102100002DE9F04F90E8F00F00F140004FF0040E81
:1021100059E0F0B4826BC36B046805252426875907
:102120003C444FEA724787EAF24787EA92273C44E9
:1021300042684FEAF21787EAB24787EAD2073C447F
:1021400040F8044B032D08BF6FF01B0687593A4433
:102150004FEA734787EAF34787EA93273A4443688D
:102160004FEAF31787EAB34787EAD3073A4440F8C0
:10217000042B87593B444FEA744787EAF44787EAC0
:1021800094273B4444684FEAF41787EAB44787EA48
:10219000D4073B4440F8043B013DC0D1A0F13C00D2
:1021A000076A3C444FEA724787EAF24787EA922778
:1021B0003C4402684FEAF21787EAB24787EAD2073F
:1021C0003C44C463F0BC4FF0020288EA781C8CEAFD
:1021D000F84C0BEBBC1C8AEA090303EA080383EA08
:1021E0000A039C4450F8043B9C4451F8043B9C4433
:1021F000674444EA050B0BEA060B04EA05034BEAC5
:10220000030BE34484EAF42383EA34530BEBB30B6C
:1022100087EA771C8CEAF74C0AEBBC1C89EA0803B6
:1022200003EA070383EA09039C4450F8043B9C44F7
:1022300051F8043B9C4466444BEA040A0AEA050A46
:102240000BEA04034AEA030AE2448BEAFB2383EA2B
:102250003B530AEBB30A86EA761C8CEAF64C09EB90
:10226000BC1C88EA070303EA060383EA08039C44CC
:1022700050F8043B9C4451F8043B9C4465444AEAB2
:102280000B0909EA04090AEA0B0349EA0309E144D4
:102290008AEAFA2383EA3A5309EBB30985EA751C03
:1022A0008CEAF54C08EBBC1C87EA060303EA05033D
:1022B00083EA07039C4450F8043B9C4451F8043BD8
:1022C0009C44644449EA0A0808EA0B0809EA0A033C
:1022D00048EA0308E04489EAF92383EA395308EB22
:1022E000B30884EA741C8CEAF44C07EBBC1C86EA45
:1022F000050303EA040383EA06039C4450F8043B05
:102300009C4451F8043B9C44E34448EA090707EA2B
:102310000A0708EA090347EA0307674488EAF8233B
:1023200083EA385307EBB3078BEA7B1C8CEAFB4C40
:1023300006EBBC1C85EA040303EA0B0383EA0503EE
:102340009C4450F8043B9C4451F8043B9C44E244B8
:1023500047EA080606EA090607EA080346EA03060A
:10236000664487EAF72383EA375306EBB3068AEA23
:102370007A1C8CEAFA4C05EBBC1C84EA0B0303EADA
:102380000A0383EA04039C4450F8043B9C4451F83C
:10239000043B9C44E14446EA070505EA080506EAD1
:1023A000070345EA0305654486EAF62383EA3653C4
:1023B00005EBB30589EA791C8CEAF94C04EBBC1CEB
:1023C0008BEA0A0303EA090383EA0B039C4450F8EF
:1023D000043B9C4451F8043B9C44E04445EA060419
:1023E00004EA070405EA060344EA0304644485EAB0
:1023F000F52383EA355304EBB304013A7FF4E5AEE9
:10240000A0F14000BEF1010E7FF483AEA0F1400CBC
:102410009CE80F00001949199219DB19ACE80F006C
:102420009CE80F004044494452445B44ACE80F0030
:10243000BDE8F08F2DE9F04FB0E8FE0783B02DE93D
:10244000010790E8005F4FF00A0006900198DB1941
:102450009CEA030C18EB3C4897EA080713EB375348
:1024600093EA3C4C18EB3C6898EA375724189EEAEC
:10247000040E19EB3E4990EA090014EB305494EA3B
:102480003E4E19EB3E6999EA3050CDE90489DDE909
:10249000028949199AEA010A18EB3A4895EA0805AF
:1024A00011EB355191EA3A4A18EB3A6898EA3555FA
:1024B00092199BEA020B19EB3B4996EA090612EBCB
:1024C000365292EA3B4B19EB3B6999EA365613EBCD
:1024D000706393EA3B6B18EB3B4898EA706013EB30
:1024E000305393EA3B4B5FEA3B6B18EB0B0898EADF
:1024F00030505FEA706014EB756494EA3C6C19EB41
:102500003C4999EA756514EB355494EA3C4C5FEA12
:102510003C6C19EB0C0999EA35555FEA7565CDE914
:102520000289DDE9048911EB766191EA3E6E18EBD0
:102530003E4898EA766611EB365191EA3E4E5FEAE4
:102540003E6E18EB0E0898EA36565FEA766612EB96
:10255000776292EA3A6A19EB3A4999EA776712EB9D
:10256000375292EA3A4A5FEA3A6A19EB0A0999EA5B
:1025700037575FEA77670190069801387FF465AFB7
:1025800001BC80E8005FBDE8000700E9FE0703B07A
:10259000BDE8F08F064B074A5B7802604FF41A7271
:1025A0008280C3710822002382710372704700BFCA
:1025B000881400207F160100064B074A5B7A0260F0
:1025C0004FF490728280C3710822FF2382710372DC
:1025D000704700BF8814002097110100F8B5C41D92
:1025E000002824F00704054614BF2046002000F010
:1025F000DFFA071E02DA6FF00B00F8BD254EB18836
:102600007088F379B2790331033089B280B20CF06B
:102610002EFE0028EFDB737831783C4403341944F4
:10262000002D24F0030400FB01F114BF204600201C
:1026300000F042FC23180DB9002BDCDB717A184640
:1026400079B10333002D23F0030414BF204600208A
:10265000728900F0A3FC0028CDDB20440DB90028CE
:10266000C9DB317A91B1737A83B1C41D002D24F096
:10267000070414BF2046002003F000FA0028BADB4C
:102680000DB10020B9E72018B7D5B4E7002DF8D177
:10269000B3E700BF881400201FB572B6194BDD6880
:1026A000EDB9BFF34F8F1849184BCA6802F4E062C6
:1026B0001343CB60BFF34F8F00BFFDE72346B2FB50
:1026C000F6F25C1C002AF9D104AEDCB256FA83F3B0
:1026D00003F80C2C0A2234B901A8A847E1E7024606
:1026E00000230A26EDE7631E04AEDCB256FA83F33C
:1026F000B0FBF2F602FB1600303003F80C0C30464B
:10270000E9E700BF8814002000ED00E00400FA05AE
:1027100007B50A4BDA88ADF8002068469A885B88CE
:10272000ADF80420ADF8023001F06CFE18B1FC21C8
:102730009C20FFF7B1FF03B05DF804FB8814002074
:1027400038B5054640B30AF09DFA10B94FF0FF3096
:1027500038BD09F0FFFDB0F5FA7FF7D8104C1148ED
:10276000E56000F09FF9002323744FF48073238009
:102770001B236380A38040F20323E3804FF4847320
:1027800023811F236381EFF3108472B600F0DCFC19
:1027900004B962B60020DBE76FF01500D8E700BF90
:1027A000881400201127000010B5002840D1234CC8
:1027B000237C032B39D059B1002A3CD0023905299A
:1027C00036D8DFE801F0031227352A2D137863701D
:1027D0000020FFF703FF0028B7BF01230223237463
:1027E0006FF00B00A8BF237410BD13791BB353798E
:1027F0000BB31188FB291ED853881B3B9BB2E02BDF
:1028000019D81A2917D91368C4F802300C4B9288CA
:102810009A80DDE713786372DAE713886381D7E77C
:102820001388FF2B07D82372D2E74FF0FF30DBE786
:102830006FF02C00D8E76FF01500D5E78814002062
:102840008A140020F8B50D46064620B319B311F0DE
:10285000070420D1114F3B7C012B02D16FF00B00FC
:10286000F8BD032B02D14FF0FF30F9E700F060F81C
:102870000028F8D02846FFF7B1FE0028EEDB0EF066
:1028800061FF3046214601F051FEFFF741FF03236F
:102890003B742046E4E76FF01500E1E78814002060
:1028A00010B5064C237C032B03D101F057FE02F038
:1028B00005FC0CF0DDFD0020207410BD8814002004
:1028C00050B1074B03F1140253F8041B40F8041BEA
:1028D0009342F9D1002070476FF01500704700BF98
:1028E000F7710B0008B501F0EBFDBDE808400249A7
:1028F000012000F055B900BFB925000008B501F06E
:10290000F3FDBDE808400249002000F049B900BFCE
:1029100095250000024B02681A600020704700BF36
:102920009C140020014B1B68184700BF9C1400201A
:10293000024B1868003818BF012070479C14002013
:102940002DE9F743264E0446071D2548376002F05F
:10295000CDFB0228054607D1214920460CF04EF850
:10296000284603B0BDE8F0830428F9D13378072B5B
:1029700018D13E2000F04AF878B9F378327901A9ED
:1029800043EA02236846ADF800300CF054FA002800
:10299000DBD053210820FFF77FFE052000F06EF802
:1029A0000028EAD0314620460CF057F8B0F5817F78
:1029B00001D37221EEE70028C7D094F8008094F884
:1029C0000290404600F022F80028BED0B8F13E0F39
:1029D000C6D1484600F052F80028C1D1B5E700BF83
:1029E000A0140020074B4FF0FF3141F6FF72C3E9FE
:1029F000001205490022C1E900221F21C3E9021289
:102A0000704700BF00000020E41400203F280CD8CD
:102A100001380B4BC0F3421200F01F0053F8223074
:102A200023FA00F000F001007047FF2806D040387C
:102A3000C0F34212034B00F01F00EFE70120704784
:102A400000000020E41400200146074B006849689C
:102A50001A4603C240F48C221A6041F0107242F40C
:102A6000FF625A60704700BF000000200246024B20
:102A70000068516803C3704708000020F42800F183
:102A8000FF33DBB21FBF064A590902EB810203F094
:102A90001F031DBF9068D84000F001000020704760
:102AA00000000020014B1860704700BFEC140020AC
:102AB00010B5FFF797FF0CF09CFE034B1B68044614
:102AC00003B19847204610BDEC140020F0B50C88E7
:102AD000C37C0288A5B2C4F30E0404F118060233C5
:102AE000865B1A44334497B213FA82F3013B42885F
:102AF000B3FBF7F313FB07439BB29A42044A93BF1D
:102B000022EA05032A4013439BB20B80F0BD00BFAD
:102B10000080FFFF4A1E062A08B50346084604D86F
:102B20004FF4D1711520FFF7B7FD094A914202D940
:102B300040F2A311F6E711B903B1196008BD2BB13A
:102B40001B680022C3E901211A1D1A600430F5E751
:102B5000FAFFFF7F10B5114B00EB41041A7863892F
:102B6000B3FBF2F303FB0223013A1A44B2F5706F90
:102B70000279807828BF00231A440B18B2FBF0F1C9
:102B800000FB11215B1AB3FBF0F100FB113313447E
:102B90006FEA43436FEA5343638110BDF014002092
:102BA000024B03EB80035960704700BFF014002014
:102BB0002DE9F04F10F0070A85B0054604D040F229
:102BC00061111720FFF768FD524F07F10C06B1465F
:102BD0000446B04657F8043B8DF80BA03BB101A862
:102BE00098479DF80A30082B01D9E821E9E79DF8BC
:102BF0000B1041BB05B131604F4506F10406E9D128
:102C0000002D6FD0DFF81091002289F80020964641
:102C1000022758F827A0013FBAF1000F55D09AF8C3
:102C200004609AF802C0FF2E60D039460023481C89
:102C300038D19C44BCF1FF0F3FD90AB189F800E0BC
:102C400040F22711BDE79DF80AC06046022838BF50
:102C500002204B1D5A0004EB4303441E2344BDF8DD
:102C600008406444013CCCF1000C04EA0C044042EE
:102C7000B4F5803F03EA000301D3F821A1E775B161
:102C80009A1A0120326091701480D0709DF80C0067
:102C90001071019810814FEA104CA2F806C004FB95
:102CA0000134A9E758F8210028B190F804B0B345E1
:102CB00004BF80781B180139B9E7DBB2E6458AF812
:102CC00004303CBF5FFA8CFE01227B1CA1D10AB10B
:102CD00089F800E0022640F6FF6A58F82670B7B976
:102CE000013EFAD2601B05B0BDE8F08F0023E5E796
:102CF00007EB41033846A3F80AA0FFF72BFF09F1C1
:102D00000109BB785FFA89F18B42F1D8E8E74FF00F
:102D10000009F6E7F4140020F014002038B54FF64F
:102D2000FF730380184B03EB810302461869A8B1B7
:102D300084780379B3FBF4F104FB1133DBB2194659
:102D400000EB4105B5F90A50002D0EDB0131B1FB56
:102D5000F4F504FB1511C9B28B42F1D1002038BD46
:102D60006381BDE838400CF05EBA00EB4104638932
:102D7000C3F30E031380C278002AF1D14FF4D5714A
:102D80001720FFF789FC00BFF01400201C4B03EB59
:102D9000810370B51C69054644B3030404D54FF4A0
:102DA000DC711720FFF778FC014620460CF01DFA75
:102DB000FF28014604D02046BDE870400CF033BA2D
:102DC000A078B5FBF0F300FB1353DBB219460A1DE4
:102DD00004EB4206B6F90260002E09DB0131B1FBBB
:102DE000F0F200FB1211C9B28B42F0D1002070BD8D
:102DF0008B4201D00023E37004EB42025580DAE7F6
:102E0000F0140020094B03EB810310B51C69014647
:102E100020460CF0EAF9FF28014604D02046BDE820
:102E200010400CF000BA002010BD00BFF0140020CC
:102E3000F8B5104B03EB810307461C690146204699
:102E40000CF0D3F9FF28054611D0E288238953EA14
:102E5000024606D0014620460CF0E5F90146384608
:102E6000B04720462946FFF775FE0020F8BD052033
:102E7000FCE700BFF014002038B50E4B827903EB5D
:102E800082030446186908B9052038BD8278E179C3
:102E90009142F9D24B1CE37100EB41035D89B3F918
:102EA0000A30002BF3DBA5800CF0BDF92060002078
:102EB000EBE700BFF014002070B5044610F00300EB
:102EC0000E4603D04E211820FFF7E6FBFFF722FE47
:102ED000054624B1034831460460FFF71BFE28462F
:102EE00070BD00BF0C1500202DE9F14FDFF870B068
:102EF0009DF828A09DF82C901E46DBF80030074670
:102F00000D4690461BB960211820FFF7C5FB5246BD
:102F1000092140460BF0E6FF4A4684B209213046BB
:102F20000BF0E0FF14FA80F1DBF800000CF031F94F
:102F3000386018B9286001B0BDE8F08F04442C60F7
:102F400038685346414609220BF08FFF28684B46EC
:102F50000922314601B0BDE8F04F0BF086BF00BF3B
:102F60000C15002070B50E4604460BF0CEFF05464A
:102F700030460BF0CAFF044B2A1821461868BDE8FA
:102F800070400CF02BB900BF0C150020024B1868E4
:102F900008B10CF0F2B870470C1500201F2AF8B5E4
:102FA000044613460ED89200033222F00303B3F511
:102FB000803F2DD2184DACB1A00710D05F21092061
:102FC000FFF76AFBFF2B4FEA420204D9FF339A4214
:102FD000A8BF1A46E8E77C2AB8BF7C22E4E729703C
:102FE0006C602B8122F003022823120403FB01F002
:102FF00001276B68120C0025EEB2B14200D8F8BD73
:1030000014B126181F705E60104401352833F3E7B1
:103010004FF0FF30F3E700BF1015002070B5154AE0
:10302000157853680021C8B2854203D8AB21092026
:10303000FFF732FB1C46184614F8286B01310EB915
:103040002346F0E700219970128999610124D96122
:1030500059685C70920803F11E0403F1260524F8F8
:10306000022FA54243F8041F1144F8D10023436105
:10307000037070BD101500204B782DE9F041064615
:103080000C4602F0040702F0FB05E3B1A5BBFF23E9
:10309000A3707B0804EB57073A7D032A02D1022D67
:1030A00018BF0133E2180121117503F10C0104EB83
:1030B0008303002224F811205B68A2703360B28081
:1030C0003046BDE8F081002DE1D101234B701D4B4E
:1030D0008D611B89CD6101F11E0249689B08204664
:1030E00004F1260C22F8023F944540F8041F1944CD
:1030F000F8D100236361CAE7D1F8048014220021CB
:103100006170A0180AF02CF80E4B1B89B3F5FF7FF5
:103110000FD25A089B1A9BB208EB0301C4F8048033
:103120002384A1606284C4F80C80A3842161E284BA
:10313000ADE7B3F5EE6F4FF0FF02EBD940F27263EB
:10314000EAE700BF10150020134B012200214FF0C9
:10315000FF309A60C3F80012C3F80803C3F80015E3
:10316000C3F804259A60C3F80803C3F80015C3F830
:1031700004250A490A4A03F580334FF40040C3F896
:103180000825C1F88000BFF34F8FBFF36F8FC1F8E0
:103190008001C3F80825704700F0004000E100E01E
:1031A0000000F63F0A46192302F8033B0448C368AF
:1031B000C1F803300369536043699360704700BFEF
:1031C0001C150020024B5A8C02435A845B6A184734
:1031D0001C150020014B00215B6A18471C150020BC
:1031E00010B5154C05F07AFD05F0BEF8208DFFF7FF
:1031F000F1FF237E63B12246104952F80C3BE36095
:103200006368536004F11900A36893600DF032F90C
:103210000B4B228D93E8030002F060FC236B1888AF
:1032200002F0E2FBA36B94F8341094F83500984751
:10323000002384F83C3010BD1C150020A53100008F
:1032400048150020034B93F83C300BB1FFF7C8BF83
:10325000704700BF1C15002070B51E4C256B636CB9
:1032600095F88C20236494F8483095F86910064648
:1032700003EB82002EB9FF2803D195F868308B420A
:1032800001D005F0B3FB95F88C30E3B1E06C05F0AC
:10329000C5FD012384F86830D5F8E8302366E16C79
:1032A000D5F8EC30206C636605F03AF816B9304674
:1032B00005F004FE95F86810002005F053FE022387
:1032C00084F83C3070BD206C05F0A8FD05F04CF88A
:1032D000ECE700BF1C15002008B5094B93F83C2013
:1032E000022A04D040F24F212720FFF7D5F9DA7ADD
:1032F00042F00102DA72BDE80840FFF771BF00BF7B
:103300001C150020032810B50A4B044605D15A6F3E
:10331000D278022A01D1002010BD986F0BF077FE01
:103320000028F9D1032CF6D001F0F6F980F0010065
:10333000C0B2F1E71C1500202DE9F043484C94F889
:103340003C30012B85B005468846DFB204D040F200
:1033500004512720FFF7A0F9266B616F02A80CF03B
:1033600089F896F87C309DF808903BB1002186F8EA
:103370007C100420FFF726FF86F87E70B9F1030F5A
:1033800027D0BDF80C30002B18BF022796F88C30E0
:1033900086F88270BBB1236BD6F8E82093F86900F9
:1033A00022660127D6F8EC20626684F868700CF07B
:1033B0007EF894F848902B49002203460092384644
:1033C0004A4604F029FF6DB105B0BDE8F043FFF7B0
:1033D00007BF96F882301BB9616F0220FFF7F2FE3B
:1033E0000327D3E7B8F1000FEED0E36F28469847E4
:1033F0000028E9D094F83430002BE5D194F88030DF
:1034000023B194F88100FFF77DFF0546606C0CF056
:10341000A6FFD4F88430B3B9B4F88830B3FA83F394
:103420005B09628C910710D5626F137803F0030378
:10343000032BC9D1D378022BC6D1002005B0BDE83B
:10344000F043FFF709BF0123EBE7002ABCD10128B5
:1034500014BF002303F001032B43EED1B4E700BFF8
:103460001C1500206C15002010B5094CD4F88430D0
:1034700023B940F2F6412720FFF70EF9B4F888206F
:10348000216C0332184609F0ABFE206410BD00BF6A
:103490001C15002010B5064B93F83C2002F0FF04E9
:1034A00022B91C7602F012FB204610BD0C24FBE76B
:1034B0001C1500200A4B0B4A70B506460D461A60D3
:1034C000FFF7E8FF18B1F4212720FFF7E5F8064CD5
:1034D000012104F18A000CF032FF6664E56470BDDE
:1034E00048000020F03C00001C150020024B012287
:1034F00083F88D20704700BF1C150020F0B5794C73
:1035000085B002AE86E8030094F83C100A9F01F0F3
:10351000FF0511B90AB103B127B940F28311272081
:10352000FFF7BAF896E8030004F12C0C8CE80300CE
:1035300084F88D5084F8345084F88E5084F83550D7
:1035400084F88F5084F8905065842585256BE36757
:103550006262A76305F08EFA04F006FF95F9700029
:1035600005F012FB6E6AE86905F014FB304605F0C1
:1035700047FC95F89C0005F017FB236B93F89F31EF
:103580000BB105F065FA0DF029FB95F8692000F103
:103590007901012005F08EFB534B186805F036FCCD
:1035A0002B69A367514A6B69C4F8943005F58071A3
:1035B00005F1F00353F8040B42F8040B8B42F9D1E8
:1035C000D5F80021C4F869205A68494B5A60236B2A
:1035D00093F8862093F86860A2F12501012903D9A8
:1035E00093F8871025295FD193F83E322BB1012E35
:1035F00003D0012B0CBF0126022605F1300731460E
:1036000038460CF0C7FF31460CF0EDFCAB8F95F857
:103610006910834228BF0346384684F898300CF07E
:10362000A2FF95F8691095F88C70B5F844600429EC
:1036300008BF03210CF0D7FC0FB9043080B28642DA
:1036400028BF064695F88C30F6B284F8996084F865
:103650004860A3B1D5F8E83095F8690023660127E2
:10366000D5F8EC30636684F868700BF020FF002218
:10367000034600921D493246384604F0CDFD012034
:10368000FFF7EAFD002323606360A360B5F8803094
:1036900063802B88238095F89C302371EB6E0BB1EF
:1036A00001221A6005B0F0BD203A012A0DD8232965
:1036B0000DD093F8263113F0010202D19B079CD55F
:1036C0000222012E18BF164697E7232905D193F849
:1036D000262193F861301340EDE7032E08BF04263E
:1036E0008BE700BF1C150020480000206C1500204F
:1036F0008515002008B50C4B93F83C201AB9BDE89D
:103700000840FFF76DBD93F83C20022A04D040F238
:1037100031212720FEF7C0FF1B6BD3F8B001BDE8B5
:10372000084005F097BB00BF1C150020014B187620
:10373000704700BF1C150020014B93F88F007047A5
:103740001C150020024B93F82900C0F3C0007047FD
:103750001C150020014B93F88E0070471C150020AB
:103760002DE9F043314D85B004460F4602A8296C7F
:103770002E6B0BF07FFE14F00109BDF80C8004F0F5
:10378000020428D0002385F89A3094B1FFF76CFE2C
:103790000DF1020201A9D5F894000BF0E4FC0198A8
:1037A0000BF0C7FC012238604146D5F894000BF0BD
:1037B0006FFCB9F1000F0BD0D6E93A32013342F178
:1037C0000002C6E93A3296F88430013386F8843034
:1037D00005B0BDE8F08395F89A30032B20D801A2FC
:1037E00052F823F08B370000F53700000F38000047
:1037F0000F380000002CEBD0FFF736FED5F8940010
:103800000022414605B0BDE8F0430BF041BC002C5E
:10381000DED0D5F8940005B0BDE8F0430BF09FBCB6
:1038200040F2A2412720FEF737FF00BF1C15002001
:103830002DE9F04FA94C002389B0CDE9043394F869
:103840003C30266B022B8046894604D040F28B51D7
:103850002720FEF721FF216C06A80BF00BFE96F83F
:103860008C30B8F1000F00F028819DF819B0BDF838
:103870001C70002B39D004F08FFDB0BB6FB196F8EF
:10388000843003F001035B450BD1012384F835300C
:10389000FFF7A6FC09B0BDE8F08FA4F888700020FF
:1038A00006E0A4F88870D4F8940039460BF0D0FBF9
:1038B000238D9DF81A20C4F8840043F400732385F7
:1038C00096F8833003F001039A4263D0256B95F894
:1038D0008230002B3DD0022B13D1A06F04A90BF036
:1038E00060FB38B940F23B41B2E7A4F88870002F82
:1038F000D5D0D8E7D5E93832013342F10002C5E925
:10390000383295F87E30002185F8821023B185F891
:103910007E101020FFF756FC95F87D30A3B14FF0D4
:10392000000A85F87DA000F0E1FE10B940F2524196
:103930008EE751460820FFF745FCD5E938320133C0
:1039400042F10002C5E9383295F88330013385F839
:103950008330238D43F4006323854FF0000A96F8EB
:10396000843003F001035B4544D19DF81830256B8A
:10397000022B11D8EBB995F88430013385F88430E7
:10398000002F37D0D5E93A32013342F10002C5E9C0
:103990003A322FE0C246E2E7032BECD1238D216CB3
:1039A000012043F4805385F87C002385FFF70AFC4F
:1039B000E1E7002FDFD0238D95F88C5043F480533E
:1039C000238504F0C5FF042894F8993006D1002D12
:1039D0000CBF1F221B22934228BF1346BB4262D357
:1039E000D4F8843033B194F88D30002B74D020207B
:1039F000FFF7F0FB002796F88B309BB1D6F8E0304C
:103A000096F8680023660025D6F8E430636684F8EB
:103A100068500BF04CFD324900950346FB222846C6
:103A200004F0FAFBB9F1000F5CD1638C94F88E10AE
:103A3000180708D5626F137803F00303032B02D134
:103A4000D378022B4ED001294CD8E36F0120984740
:103A5000002847D094F83430002B43D11FB105A97A
:103A60000120FFF77DFE256B002395F88C208DF853
:103A70000D3094F8483095F8681003EB8203FF2B63
:103A800003D195F869308B4202D0FF2004F0AEFFDD
:103A900095F88230032B00F21781DFE813F07A00EB
:103AA000A500FC000D0194F83430012043F0100310
:103AB00084F8343007F0EEFA9CE70BB104F0A8FC70
:103AC00094F88E30013384F88E30238D002743F430
:103AD00080632385BA468EE747468CE71C15002095
:103AE0006C15002005F04AFA002F4DD14FF0010966
:103AF000238D5A0606D44020FFF76CFB238D43F03C
:103B000040032385BAF1000F0DD0B4F80720B4F8B4
:103B100005301343B6F8802013431EBFB4F80930B4
:103B20000133A4F80930B8F1000F00F0D580B4F8E3
:103B300005300133A4F80530002384F88E3069483D
:103B400001F040FF049830B10BF0F3FA216B002232
:103B5000027201F00FFB059B33B1216B00221A7238
:103B60000C22059801F0D4FAB9F1000F7FF490AE61
:103B7000238D1B063FF58EAE8020FFF72BFB238D98
:103B800043F08003238585E605A90320FFF7E8FDC0
:103B9000ACE794F89830ADF80E305348A5F858309B
:103BA00000F094FD28B1012385F87D3084F8903031
:103BB0001CE0A06F0DF10D020DF10E010BF0CCF920
:103BC000606788B195F8C73073B99DF80D302BB98F
:103BD00003808370606F01210CF0B1FB636FBDF84F
:103BE0000E205A700123E1E7404B6367D4F874B0AC
:103BF00095F883209BF80000D20002F0080200F044
:103C0000F303134395F88420920002F00402134357
:103C10008BF8003000F00300FFF774FB9BF80030D6
:103C200023F0100343EA00138BF8003095F88B3033
:103C3000606F002B4BD04378002B48D0E06C05F030
:103C4000EDF8002384F86830D5F8E0302366616F22
:103C5000D5F8E430E06C636604F028FB95F8691051
:103C6000012005F07FF90125606F84F88F500CF07A
:103C700076FB636F84F880001B7884F83C5003F077
:103C8000030384F88130002F3FF432AF05A90220EE
:103C9000FFF766FD2CE7B5F85830A06FADF80E3091
:103CA0000DF10D020DF10E010BF056F960670028C1
:103CB00098D140F2F121CBE50B4800F007FD002838
:103CC00090D140F2FB21C3E540F20931C0E505F097
:103CD000A5F804F049FBC1E7B4F807300133A4F8B4
:103CE00007302CE74815002090150020A61500206D
:103CF000D93200003138000039330000453200006D
:103D0000F0B5070CA7F5AA42144B543A012A03EA6E
:103D100090231FD927F4004042F6AA22801A18BF28
:103D200001200022162116461F2487EA060562EAB2
:103D30000505013510D0DD03ADB245EA5606E503B1
:103D4000ADB2013945EA52024FEA53034FEA540437
:103D5000EBD1F0BD0020E4E70020FAE7E0FF3F00F0
:103D6000304BF0B55A88B0F85C70B0F85A609D8856
:103D7000974228BF1746964228BF16461B2E85B08D
:103D80000C462ED0B5F5A47F2DD040F648039D42B9
:103D900001A928BF1D460BF0EFFBBDF80A30BB425E
:103DA00028BF3B46E380BDF80C30AB4228BF2B4612
:103DB0002381BDF80630B34228BF33466380BDF887
:103DC0000830AB4228BF2B46A380FF232370E38833
:103DD0001B3B9BB2E02B08D940F2F5613920FEF77E
:103DE0005BFC1B2FCED105B0F0BD63881B3B9BB2A3
:103DF000E02B02D940F2F761F0E72389A3F5A47321
:103E00009BB2B3F5E06F02D940F2F961E6E7A3880F
:103E1000A3F5A4739BB2B3F5E06FE4D940F2FB6164
:103E2000DCE700BFB815002010B501210020FEF727
:103E3000E9FF044670B90121FEF7A8FF044620B946
:103E400040F293313920FEF727FC034B93F906101B
:103E50000DF073F9204610BDB815002008B50CF020
:103E600045F800F0A1FD00F0A7FB0CF0DBFA01F033
:103E700017FE00F039FF094B00221A60084B1B2186
:103E80004FF4A47098801A805980064B0648186039
:103E90005A829A7599805A749A8208BD4C00002003
:103EA000B8150020E419002003021B00044B41F662
:103EB0004C52C3E902221B221A74FFF7CFBF00BF86
:103EC000E419002073B5244DAB680363234B836171
:103ED00004460CF0EDFF064600F05EFB830654BF7F
:103EE0001B236B88A4F85A3058BF1A461C4B297CF8
:103EF0001B6848BFAA88A4F85C2084F8381066873D
:103F00001BB194F9701020889847164E2046314610
:103F10000CF08BF801236A886978E385AB880191FE
:103F200016F8121C0091033303329BB292B204F1D3
:103F3000140104F11000FEF7D7FF236923B940F202
:103F4000CC613920FEF7A8FB636913B940F2CD615B
:103F5000F7E7002002B070BDE419002000093D0021
:103F600050000020F6190020F7B504460D460DF06C
:103F700017F900286DD020460DF0EEF938B1B5F8EC
:103F80000130013B7F2B02D9122003B0F0BD204647
:103F90000DF0E6F908B90C20F7E720460DF07EF8A1
:103FA0000028F8D120460DF0B9F806460028F2D1D5
:103FB000204602F06DFF0028E6D0B5F80170E978E0
:103FC00042F2107320465F430DF0B2F920460DF027
:103FD000BBF9014648B93A46204602F009F9B0B3A8
:103FE00041F6A5413920FEF757FB31460DF1060099
:103FF000FEF794FE054608B90D20C6E7314600F0ED
:10400000C1FDBDF806302B80204629460DF0B2F9DF
:1040100020460DF0ABF988B9216A20460DF0A8F9C9
:1040200001462846FFF74EFF3A462946204602F051
:10403000DFF8024620B141F6C841D3E70121F0E79D
:10404000054B9B681BB105F58D71284698470020EC
:104050009BE7422099E700BFB8150020024B1B6880
:1040600003B118470C2070474C000020034B5A88BE
:1040700002801B7883700020704700BFE419002085
:1040800037B583781A2B054608D8042B04D9144A6F
:1040900022FA03F3DB0705D412241AE0292B01D0FE
:1040A0003B2BF9D12888B0F5706FF5D269460BF03B
:1040B0005DFF88B9019B93F8182102F0FF046AB9EB
:1040C000AA7883F81921FF2283F8182168460CF09A
:1040D00084F9204603B030BD0224FAE70C24F8E747
:1040E000200038040188A1F11B039BB2E02B0CD8FF
:1040F0004288A2F5A4739BB244F24810834204D8CC
:10410000034B002059809A8070471220704700BFEF
:10411000B8150020034B5A889B88028043800020FA
:10412000704700BFB815002038B50278447802F017
:10413000010354EA030102F0020201D1112038BD4B
:10414000BAB98578002DF9D0002B18BF002400E003
:104150001D4620460BF0BBF90028EFD028460BF097
:10416000B6F90028EAD0054B00209C74DD749882D3
:10417000E5E7002BECD000242546EAE7E41900200F
:1041800013B5008869460BF0F1FE18B102242046F1
:1041900002B010BD019A92F8DC31DBB292F8A8208F
:1041A000002AF3D113F0FB0FF0D0019890F82A31D8
:1041B0000BB13A24EBE790F8D23003F0FF04002B68
:1041C000F7D190F8C9309B0706D1FF2380F82A3138
:1041D00068460CF002F9DAE70249CA300CF04AF9F5
:1041E000D5E700BF4F0B0100F7B50778EF2F054665
:1041F0000C460FD890F901204378002A0ADB827818
:10420000900707D113F010001DD1990603F00302A7
:1042100002D51AB1122442E0032AFBD01E07F9D4BA
:104220002979EA78EE7942EA0122697942EA014283
:10423000A97941EA06212E7A41EA06418A42E9D863
:104240001F2A0FD8E6E713F0600FE3D103F007024F
:10425000052A05D003F00F010D22CA40D107D9D598
:104260001A07DDD56A7A013A062AD3D8AA7A032A30
:10427000D0D813F0040102D1023A012A03D8EA7A15
:10428000012AC7D811B9AA7C032AC3D82A7D48B10C
:10429000012ABFD12A7E012ABCD830B91124204678
:1042A00003B0F0BD022AF5D1B4E7DB0712D46B7876
:1042B0002A7D03F01803082B11D1022AEED1012127
:1042C0003846FEF79FFD064678B10CF0E7FEB8B120
:1042D0000C24E4E700F024F90028E8D1DEE7022A04
:1042E000EDD02B7F002BEAD0D8E701213846FEF72E
:1042F0004DFD064640B3154B93F906100CF01DFF1B
:1043000030460DF01EF829462070E87430460CF057
:1043100063FFEB7E0446002BC1D00028BFD1316B78
:1043200002466846FEF7A8FE306B224601210AF0DD
:10433000E6FF316B68460422FEF79EFE306B224694
:1043400021460AF0DCFFAAE70724A8E7B8150020F9
:1043500030B50279042A8BB003464FD84088B0F5B7
:10436000804F4BD826498D5C114400244A79ADF822
:10437000004042F0100242EA45028D7AC97B8DF876
:10438000084042EA850242EAC10202F01F028DF8AB
:104390000020BDF80020ADF809201A888DF80B2008
:1043A0008DF80E00120A000A8DF80C208DF80D40D1
:1043B0008DF80F008DF810405A7B8DF811205A7936
:1043C0008DF812209A79D3F807008DF81320B3F8EE
:1043D0000B209B7B8DF81A307F2305908DF81B30C6
:1043E00069464FF0011302A8CDE90734ADF8182053
:1043F0008DF82440FFF7F8FE0BB030BD1220FBE72C
:10440000D8450A000278034672B1427862B1428808
:104410001A2A09D982881A2A06D9044A0068106023
:104420009B8893800020704712207047E419002079
:10443000024B02689A600020704700BFE419002018
:104440000378A3F10A02112A9DBF024A00201374C7
:1044500012207047E419002008B5052000F090F8FC
:1044600003F02AFE014B024A9A6008BDB8150020ED
:10447000613D000008B502F0F3FC01F0A5FFBDE8C6
:104480000840014802F0D6BCC415002010B50B4A04
:104490000123144682F8023102F0EAFC0DF012F911
:1044A0000BF022FD04F203112046FFF703F8002071
:1044B0000AF0C1FEBDE8104000F010BEC415002097
:1044C00010B5064C064904F502700BF0C5FC04F566
:1044D00003700449BDE810400BF0BEBCC4150020B9
:1044E000540000205C00002010B5094C094904F577
:1044F00002700BF0B1FC04F5037007490BF0ACFC43
:1045000004F504700549BDE810400BF0A5BC00BFE0
:10451000C4150020640000206C00002074000020FE
:10452000014B93F802017047C415002010B5074CE9
:1045300000F0B0FDD4F808020BF086FCFFF7B6FCE3
:1045400000F0DEFE012384F8143210BDC4150020F3
:10455000014B93F814027047C415002010B5074CA6
:10456000D4F80C020BF070FCD4F810020BF06CFCC9
:10457000FFF774FC002384F8143210BDC41500202A
:10458000C208044900F0070001238340885C03430C
:104590008B54704710000020014BD3E90001704795
:1045A00010000020034B1868C0F30020400040F0CA
:1045B000010070471000002008B507F0CBFE084A44
:1045C000002332F82310814205D302EB8302937853
:1045D000044A137008BD01330C2BF2D10023F7E716
:1045E000EC450A00D917002010B544682388A4F8C8
:1045F000683194F8683084F86711012B06D0022BDB
:1046000004D04FF461710620FEF746F884F86A3151
:1046100094F86930012B01D0022BF2D184F86B3170
:10462000044904F5AF700BF025FF002384F8243112
:1046300010BD00BFD3FE0000044B002283F82220EF
:104640004FF6FF729A84DA841A857047DA170020D1
:10465000054B9A8C824201BF002283F822204FF63C
:10466000FF729A84704700BFDA170020014BD8848C
:10467000704700BFDA170020084B998C4FF6FF7285
:10468000914206D193F82220012A04D00360012030
:104690007047002303600020704700BFDA17002036
:1046A000064B93F82220012A1FBF0120DA8C83F8E1
:1046B00022009A8408BF0020704700BFDA1700204C
:1046C000014B1885704700BFDA170020064B0246E1
:1046D000198D988C884205D193F8220018B1136087
:1046E0000120704700207047DA170020094B998C91
:1046F0001A8D914201D0002070474FF6FF729A84C4
:1047000093F82220002AF6D0002283F822200120EC
:10471000704700BFDA170020054B998C1A8D914223
:1047200003BF93F82200B0FA80F0400901207047DF
:10473000DA17002050B90A4A1346012003F8010B8A
:104740000868C2F801008A889A807047012805D15C
:10475000034B0A689A608A88D8719A81704700BFB3
:104760000418002050B90B4B187888B1D3F80120F9
:10477000B3F805300A608B8001207047012806D10C
:10478000044BD87920B19A680A609B89F3E700202E
:10479000704700BF0418002010B9044B1878704708
:1047A000012806BF014BD87900207047041800206B
:1047B000F7B500238A888DF80600ADF80420086854
:1047C0000B4A8DF80730019D1478014602F5A87256
:1047D000D8B2844201D8082008E052F8087F566811
:1047E000AE4208BF8F4203F10103F1D103B0F0BD27
:1047F0001818002030B5094B01465C78002203F2FE
:104800000113D0B2844201D8082005E013F8015FFB
:104810008D4202F10102F4D130BD00BF1818002012
:10482000F0B5254D95F8984189B0224605F29911C9
:10483000684608F0D5FC214668460BF076FB044636
:10484000B8B300EB4001C9B202A8FEF76BF8631ED3
:1048500095F8A161DBB2012495F8981105E0721C6E
:10486000B2FBF1F001FB1022D6B206F120020DEBF3
:10487000020010F8202C002AF1D103EB4301203173
:10488000694406EB46022A4411F8187C82F8A271AA
:1048900011F8177C11F8161C82F8A37182F8A41184
:1048A00000F8204C013BAA19DBB2FF2B82F899419A
:1048B000D2D109B0F0BD00BF1818002070B506466F
:1048C00088B00C46002A4ED0294A92F8A131D0185F
:1048D00090F8991119B9FF212820FDF7DDFE03EBAF
:1048E00043011144013391F8A251E57091F8A351AD
:1048F00091F8A41161710021257180F8991192F845
:104900009811B3FBF1F001FB103382F8A13192F85A
:10491000C23123B9174902F5DD700BF0A8FD6579A6
:1049200005F03F0545F0400565710D220021684600
:1049300008F016FCE3788DF80F3023798DF80E30EF
:1049400004AA0423694630468DF80D5008F066FA33
:104950009DF81F3023709DF81E3063709DF81D3048
:10496000A37008B070BD03216018FDF7DBFFD6E728
:104970001818002021480000044B5A78824286BF54
:104980001B1893F84A010020704700BF1818002038
:10499000044B5A78824286BF1B1893F842010020CC
:1049A000704700BF18180020064B00224FF46171B9
:1049B0001A8083F8C32183F8C421A3F8C61183F8B1
:1049C000C221704718180020014BB3F8C601704788
:1049D0001818002030B50A4B5C7884420ED9184470
:1049E00090F802012B3003EBC004A5790D7053F849
:1049F00030001060A3889380012030BD0020FCE7C8
:104A0000181800200246074810B590F8C34124B199
:104A1000417821B1023003F075FB204610BD0C46F1
:104A2000FBE700BF181800202DE9F74F2F4C9A46DE
:104A3000637883428046894656D9231893F84251B9
:104A400085F00105F9B193F84A31E3B945F0020761
:104A50000135BAF1000F18D1FA070AD5062101FB7A
:104A6000084104EB0810524601F585718230FFF7CA
:104A700025FFBB0734D504EB0810524649460230E7
:104A8000FFF71CFF2CE02F46E3E794F8A1614FF0FD
:104A9000010B002DE0D0A319019393F8991199B956
:104AA0000092DAB100F0FCFB06EB46012144019BC9
:104AB00081F8A2014FEA102C009A81F8A3C1000CE2
:104AC00081F8A40183F899B194F898310136B6FBC6
:104AD000F3F103FB1166F6B2013DDAE747F0040794
:104AE000384603B0BDE8F08F0027F9E7181800201A
:104AF000074B5A78824209D91A1892F842212AB9EA
:104B0000062202FB003000F58570704700207047D8
:104B100018180020064B5A78824281BF1B1893F860
:104B20003A01B0FA80F0400998BF0020704700BFFA
:104B30001818002030B50024A0F84040B0F84440D8
:104B400042F210754C43B4FBF2F4A0F84440541EFA
:104B500005FB0343B3FBF2F3A0F84230084BB3FB71
:104B6000F2F30133A0F84830838F05FB0344436B15
:104B7000B4FBF2F459438463B1FBF2F1416330BDFD
:104B8000005A620270B504460D4659BB4FF41A72C2
:104B900008F0E6FA012384F88E306FF0360384F8CB
:104BA000D930042384F8DA306FF03B0384F8DB302B
:104BB0006F2384F8DC306FF03C0384F8DD306FF055
:104BC0007F0384F8DF302B2384F8D830FE2384F869
:104BD0000E317F2384F88530202384F8DE5084F85A
:104BE000F73170BD012923D10023A0F8B43180F83A
:104BF000AB31826940F6B833A0F8B4301146438C2B
:104C00007830FFF797FF104B1B68062B01D001335C
:104C10000CD10E4B1B68063B083307D9E069FFF740
:104C20006FF818B9012384F89F31DAE70023FAE717
:104C30000229D6D1B0F84A32D0F844228169BDE8C1
:104C400070407830FFF776BF401D0020441D0020E3
:104C5000034B80F870101B680BB100881847704731
:104C60007C0000200B2808B504D940F2C711292088
:104C7000FDF712FD014B33F8100008BD20460A0075
:104C8000074B93F900301844142804DC10F17F0F0F
:104C900003DB40B27047142070476FF07E0070470E
:104CA000E019002007B57F230DF107008DF80730CC
:104CB00004F040F903469DF9070053B1094B5B78B6
:104CC0005B4240FA83F0142806DC10F17F0F05DB0D
:104CD00040B203B05DF804FB1420FAE76FF07E00E9
:104CE000F7E700BFE0190020024B00221A705A704B
:104CF000704700BFE01900200346407898B1DB7888
:104D00003F2B05D8084AD35C1B1A584258417047BC
:104D100003F10C02D2B2042A04D8034A134413F854
:104D2000B43CF1E70120704738460A003F2908B536
:104D3000C17003D80B4B5B5C437008BD01F10C03E1
:104D4000DBB2042B04D8074B0B4413F8B43CF3E755
:104D5000FF2904D040F23A412A20FDF79DFC0123AF
:104D6000EAE700BF38460A002DE9F347894669465D
:104D7000154698460BF0FAF8044620B9019E35B95D
:104D8000012386F88D30012002B0BDE8F087376935
:104D9000294638460AF08AF801460028F4D0164B16
:104DA0005B88AB4225D338460AF0BFF996F88D30C0
:104DB0000480002B0CBF49460221824684700BF010
:104DC000BEFA41462A460AF1030008F009FA2946CC
:104DD00038460AF0A6F818B97E212B20FDF75CFCB6
:104DE00068460BF0FAFA019BA3F8A24186F88D40C1
:104DF000C9E72046C8E700BFE4190020044B987DAE
:104E0000C0F3400080F0010000F00100704700BFD7
:104E1000E419002083230B70014B1B78CB70704783
:104E2000FC1900202DE9F84FD0F80480D8F8146060
:104E300030460D460AF06BF9044618B9FF211020E0
:104E4000FDF72AFC014630460AF06FF9B4F800B0CD
:104E50001FFA8BF98246B9F1000F02D140F203111B
:104E6000EDE71E4B1B68C71C8BB9B8F80030AB8050
:104E700000236B72A5F806B09AF8003003F0030324
:104E8000012B0FD0022B0DD040F21D11D7E7B8F83F
:104E900000004A463946984704460028E5D1204696
:104EA000BDE8F88F2B7230460AF045F9044610B978
:104EB0004FF49371C3E7B9F1FB0F02D940F23511FA
:104EC000BDE7286810B94FF49B71B8E74A463946E8
:104ED00008F086F930460AF089F8E0E78000002003
:104EE0002DE9F347DFF850818246894605270026E1
:104EF000D9F8103053B11B7A1BB980211020FDF76F
:104F0000CBFBD9F81040B4B9002071E0D9F80440C7
:104F1000237A012BF8D0EFF3108372B6D9F804206E
:104F20001268C9F8042003B962B6C9F81040237AA0
:104F30000BB9A621E2E7257AEDB227726B1E0B2B87
:104F40006AD8DFE803F066061C3463693D69696965
:104F50006958636813B94FF4D771CFE720465146BB
:104F600098470420EFF3108272B6237A052BD9B24A
:104F70005CD12672C9F81060B2B962B614E06368F9
:104F800013B940F2B711B9E7514620469847034696
:104F9000C3F30723012BADF80400C0B23FD0022BAE
:104FA000E0D10023C9F810300028A1D020E06368C8
:104FB00013B940F2BF11A1E7204698470020D1E77E
:104FC00063680BB9B52199E70B228AF8002019888C
:104FD0001869AAF80310012200248AF802208AF82E
:104FE00005208AF806400AF001F8C9F810400420AC
:104FF00002B0BDE8F087D8F8003051462046984707
:10500000034660B1C9F810600220F1E74FF4FB716C
:1050100074E740F2F91171E74FF4FE716EE7257203
:105020000028E5D1002B7FF463AF6DE711B940F2A2
:105030001D2163E700209FE78400002038B5134C52
:1050400014220021201D08F08BF80125257414225C
:1050500004F10803002104F11800C4E9013308F049
:105060007FF884F8245004F11C03C4E90633084A8D
:105070000023E362236384F83430C4F83530C4F885
:10508000393084F83D30136038BD00BFFC19002072
:105090008000002010B5084C2378FF2B04D04FF47B
:1050A000A0711020FDF7F8FA07F0FEFE2070BDE8B1
:1050B0001040FFF7C3BF00BF1D00002010B5034C18
:1050C000207807F00BFFFF23237010BD1D00002088
:1050D000014B187807F012BF1D000020014B024A57
:1050E0001A60704784000020254E000010B5064964
:1050F0000446FFF7F5FE28B920460449BDE81040F4
:10510000FFF7EEBE10BD00BF141A0020001A0020E9
:1051100010B51346027A22B140F299211020FDF712
:10512000BBFA0A46BDE81040014601480BF07CB9C5
:10513000001A0020044890F834301BB903492C3081
:105140000BF08FB9704700BFFC1900201B04010051
:105150000346064890F83E203AB190F83D2022B927
:1051600000F8353B02490BF07CB97047FC19002070
:10517000154E000010B50A46037A23B140F2A12172
:105180001020FDF789FA0146BDE8104001480723C9
:105190000BF04AB9141A00201346027A0AB10372BE
:1051A00070470A46014601480BF03EB9001A00203C
:1051B0001B234FF01B128384038482618382C260AD
:1051C000038539B94FF4A473034AC3844384C2618D
:1051D000C3820261704700BF480148010346F0B432
:1051E000B3F85420B3F84840B3F84460DF8FB3F805
:1051F0004250944228BF14460846B3F84C20B3F8F6
:105200005610DC878A4228BF0A46B3F84610A3F836
:105210004220914238BF1146A64238BF2646A742D7
:10522000A3F84460A3F846101FD1AA1A18BF0122A0
:10523000B3F84A50B3F85040B3F852709E8FB3F8A9
:105240004010A54228BF2546B3F84E409D87BC427A
:1052500028BF3C46AE42A3F8404002D1A14200D153
:105260002AB1F0BC03490BF005B90122E0E7F0BC1C
:10527000704700BF7B0401000B8BA2F80B304B8BF7
:10528000A2F80D308B8BA2F80F30CB8BA2F809005F
:105290000249A2F8113010460BF0E6B8CB04010029
:1052A000094AD2E90003434083EAB01181EA43216D
:1052B0004FEAF3435360054B116058434FEAF060E7
:1052C00000EB8000704700BF3C1A0020BB79379E7E
:1052D000094AD2E90003434083EAB01181EA43213D
:1052E0004FEAF3435360054B116058434FEAF060B7
:1052F00000EB8000704700BF20000020BB79379E84
:1053000010B50A4C09480821FDF70CFBD4E900321E
:105310001343F7D0064CFFF7DBFF2060FFF7D8FF01
:10532000236860601843F6D010BD00BF2000002045
:105330003C1A0020174B184A9A60184A5A60184ABB
:105340001A60184A9A62184ADA62184ADA60184AE9
:105350009A61184A1A63184A1A62184ADA64184A93
:105360009A64184A5A62184B184A9A60184A5A6244
:10537000184ADA62184A1A61184A5A61184A9A6138
:10538000184A1A63184A9A64184ADA64184A9A63DF
:10539000704700BF8800002091070100C10701008D
:1053A0002D08010093090100E7090100E9560000FA
:1053B000FD0901002D590000CD570000CB0A010066
:1053C000E70A0100155800009C010020AD0701000C
:1053D0009D0A01001F0A0100C3090100430A0100E0
:1053E0006D5700006D0B0100150B0100070B01004C
:1053F000830A0100044B054A5A65054B054A1A65A4
:10540000054A5A65704700BF88000020E108010086
:105410009C010020C70801003F090100252A03461E
:1054200010B5084618D8012A19D9023A232A16D8E5
:10543000DFE802F01A1525242431153315243943E9
:105440004715154B24245E5E747415151515151536
:1054500015151515157B868EFF2A00F081804FF4F7
:10546000A1615120FDF718F91A785B68012A02D171
:1054700093F8103101E093F81931037110BD5968A8
:10548000D1F8BE214260D1F8C22182605B68D3F8B6
:105490000431C360F2E75B68EAE70146BDE810400B
:1054A000184600F00DBA5922427100221023827171
:1054B00020220371C2710372E0E75B6893F80A313E
:1054C000DBE7BDE8104000F0EBB95A681B784BB938
:1054D00092F8103133B192F80D31037192F80C311A
:1054E0004371CBE792F80B31037192F80A31F7E779
:1054F0005B68B3F854200271120A4271B3F81221AA
:105500008271120AC271B3F850200272120A4272FA
:10551000B3F8103183721B0AC372AFE75B6893F86C
:105520002621027193F82731DAE7124A1468002C19
:10553000A4D001461A4623202346BDE81040184750
:105540000C4A1468002C99D001461A462420F3E72F
:10555000084A1468002C91D001461A462520EBE732
:105560005B68BDE8104093F83722D3F838120AF090
:10557000FABE00BFB00200203F2803D8064B53F804
:105580002000704700F10C03DBB2042B01D8B438C3
:10559000F4E70020704700BF880000203F2803D8B0
:1055A000064B53F82000704700F10C03DBB2042BCC
:1055B00001D8B438F4E70020704700BF9C010020F8
:1055C000F7B545682E6904464FF6FF770DF10201E5
:1055D0000DF101023046ADF8027009F0BDFC01A9E1
:1055E000304609F0DEFC40B1019809F0A2FD616887
:1055F00000220272FFF7BEFDE8E7044905F1A000B2
:1056000003B0BDE8F0400AF02FBF00BF1F07010044
:10561000F0B5044685B00D46FF2600F8856C10F8FD
:10562000863CF3B1184F3B781BB148211F20FDF792
:1056300033F80C21381DFDF775F93E70002304F88E
:10564000853C2A46072302F8033BD4F80930C5F805
:105650000330D4F80D305360D4F81130936005B0A6
:10566000F0BD01A80C21FDF75DF9A4F51373039AB1
:10567000C3F8042101AB03CB44F88E0C44F88A1C18
:1056800004F8866CDAE700BF441A002010B5054C18
:1056900023782BB90C21201DFDF744F9FF2323703B
:1056A00010BD00BF441A0020024690F8C631BBB9B5
:1056B00090F8C73103F0FF010BB100207047094B90
:1056C00018780028F9D01970D968C2F80411043389
:1056D00003CBC2F8BE01C2F8C211FF2382F8C63163
:1056E00001207047441A002038B5426892F887308C
:1056F00004460D463BB1132B05D0113B0B2B8CBF41
:105700000120082038BD92F8C83013B920460AF0AD
:10571000C3FF6268D5F80E30C2F8B631D5F8123042
:10572000C2F8BA316368D5F81620C3F800211A8888
:10573000A3F855226A68C3F85722AA68C3F85B2207
:105740006368AA89A3F85F226368002583F8C651BD
:105750006068054900F513700AF083FE636815223E
:1057600083F887202846CDE71156000038B54368F6
:1057700093F887201C2A044604D04FF4DE711F20C2
:10578000FCF78AFF93F8C8101D88002283F8C72011
:1057900003F5C97069B10B4983F8C820A3F89C517F
:1057A00083F89B210AF05DFE6368002283F887205E
:1057B00038BD012283F89B11A3F89C51024983F85C
:1057C0009E21EFE77F0901007109010038B54568A6
:1057D000AB6F13F0010417D14A680C4B8968134072
:1057E0000B4AC5F8D830C3F3076343F008030A40F7
:1057F00085F8DB30C5F8DC200AF04EFFAB6F43F0D4
:105800000103AB67204638BD0120FCE72FC904F730
:105810006FDB008008B5406890F88630042B28D1F3
:105820004B688A68C0F8D830C3F3076343F00803B5
:1058300080F8DB300023C0F8DC2080F8C23080F82C
:10584000863090F8743103F0FF020BB1002008BDE0
:105850000388A0F8763180F875214B68C0F878315C
:105860008B68C0F87C31044900F5B6700AF0F9FD88
:10587000ECE70120EBE700BF610A0100406890F807
:10588000743153B90388A0F876311A2380F8753142
:10589000024900F5B6700AF0E4BD7047610A0100E4
:1058A00010B50446FEF778FE034A044B02400B4055
:1058B0006260A36010BD00BF2FC904F76FDB0080DA
:1058C00037B50C464568FEF767FE084A084B0A40A4
:1058D00095F8D8100192034000930B408DF80030EA
:1058E0006B4603CB6060A16003B030BD6FDB00800E
:1058F0002FC904F738B5DB04154604D5037D13B171
:105900000023436338BD446B013444630BF00FF94B
:10591000836B9C42F6D30023436303492846BDE8CA
:1059200038400AF0A7BD00BFBD0A010038B5446881
:1059300094F88630012B054602D0A36F98073CD41B
:1059400094F8C9309A0715D40A7984F8D320B1F8AD
:105950000520A4F8D420B1F80720A4F8D620D80751
:1059600043F0020284F8C9200FD5154904F1CA009A
:105970000AF080FD94F8C930D90711D4A36F9A07B3
:1059800008D555214020FCF787FE94F82A31002BDA
:10599000EBD1EFE743F00203A36728460AF07CFE51
:1059A00094F88630012B4FF0000301D0002038BD61
:1059B00084F8863084F8C230F8E70120F7E700BFAA
:1059C0004F0B010070B545680446FFF76BF9054BB6
:1059D00085F885001B6801461BB12046BDE8704074
:1059E000184770BDB8020020024B1B6803B118476E
:1059F000704700BFB4020020F0B51F4D2B78002483
:105A000014709BB1013B6D68DBB21E1B012E0FDCD5
:105A100005EBC40655F8347076688E4208BF87429D
:105A200027D0B84271EB060612D214700020F0BDE8
:105A30001E19771005EBC70E55F837C0DEF8047055
:105A40008445C6F347068F412CBF33463446DCE716
:105A500005EBC30455F8335064688C4208BF854297
:105A600006D0A84271EB040428BF01331370DDE7B0
:105A70001C4614700120DAE7641A002010F00702B7
:105A800008B503D063214820FCF706FE18B1034B8C
:105A9000197258601A70C80008BD00BF641A00204F
:105AA000014B00221A707047641A00200A468223B4
:105AB00002F8033B04480368C1F8033043685360AD
:105AC00083689360704700BF6D1A00200248162259
:105AD000002107F045BB00BF6D1A002082B002AB69
:105AE00003E903000B48437D93B1530610D50A88A0
:105AF0000280D1F81822B1F880304260D1F81C221F
:105B000005498260438002220C3002B0FFF744BB9B
:105B100002B070476D1A0020AD5A0000094B53F8CF
:105B2000203070B503F523430C461646A1334FF4DD
:105B30007A72B3FBF2F503F075FB34442C44204435
:105B400070BD00BF48470A002DE9F04F8DB09A465E
:105B500090F8693002930446894606920AF0B7F934
:105B6000834694F87300FFF77DF883440BF036F812
:105B700094F887300393069B1FFA8BFB00F15007C4
:105B800083BB94F8DC31032B2CD1039B0D2B29D143
:105B9000B4F83C324B4525D1D4F8E431C4F8D031C7
:105BA000A369B4F8B421C4F8D431B4F82A32134448
:105BB000C4F8D831204602F04FFAD4E99023A2620B
:105BC000B4F83E22A285D4F84822226241F64B5214
:105BD0009342A3618CBF0023012384F87230022317
:105BE00084F8DC31B4F82852B4F88080A9EB0505BC
:105BF0002DB204F5FC73A9EB0808002D04930FFAED
:105C000088F818DAD4E98423C4E9882301234546B7
:105C10000493CA4B1B7813B106F090FB70B90026B1
:105C200094F8DC31032B00F2DE81DFE813F06C0026
:105C30006601BD008B01CDF810A0EAE7B4F8C831C9
:105C4000012BECD994F8DC31022BE8D094F8F66102
:105C5000002EE4D194F87300FFF704F894F8DC31D7
:105C600000F5C86B012B1FFA8BFBD9B23ED194F81B
:105C70008A20A36A032A32D1D4F8D4211344594686
:105C8000D4F8D401079306F01DFBD4F8D061079B2C
:105C9000D4F8D821C4F8D001861B5946184656437B
:105CA00006F010FBD4F8E031C4F8E001C31A5946FD
:105CB000A0691E4406F006FBB4F8B431D4F8D8212C
:105CC00043445B1B9B1AD4F8E421013B821A02FB7C
:105CD00003660123C4F8E40184F8F631A0E73046F6
:105CE00007930AF0B7F9079B0344C8E7A069594630
:105CF00006F0E8FAB4F8B461D4F8E4314644761B0F
:105D0000C31A5E43E5E7012100200AF0A3F98046AB
:105D1000A06A5946404406F0D5FA5946C4F8E00155
:105D2000A06906F0CFFA09A9C4F8E4010AA803F0B3
:105D300035F9099B0093D4E98801DDE90A2305F0D0
:105D4000ABF9029020460AF061FFA16AD4F82C2238
:105D500094F869008D1803F06DFAD4F8E011029BF5
:105D6000203D6D1AED1B454400F52340ED1AA1308E
:105D70004FF47A73B0FBF3F0A38D30312D1A03EB9F
:105D8000410194F869003A46FFF7C8FED4F82C3276
:105D9000EB1A2230B3F5917FC4F8E80159D240F2F2
:105DA000FC413020FCF778FCA36AD4F8D4015946B2
:105DB000184406F087FA5946C4F8E001A06906F0D5
:105DC00081FAC4F8E40120460AF020FFA36AD4F85F
:105DD000D4511D44B4F8B431002B40F08A80BAF19C
:105DE000000F00F0868094F8690003F023FAD4F8DD
:105DF000E011D4F8183294F869206D1A203D1D4442
:105E0000D4E984BC4E4B53F82220A5EB0B054FF48C
:105E10007A7302F2E732B2FBF3F21544ED1B00F5A0
:105E20002340A130B0FBF3F02D1AD4F8D821D4F8D8
:105E3000D03194F8690002FB0313A18D303301EBDC
:105E400043013A46FFF76AFE0123C4F8E80184F8EB
:105E5000DC31A369D4F8E421E73B9B1ADF1B002364
:105E600084F8F831D4E988328742A5EB060528BFCB
:105E700007465B1942F10002C4E98232C4F8B071EE
:105E800004F130000AF06DFBD4E98223C4E98823D1
:105E9000B4F8A031A4F82892A3EB09031BB2002B9D
:105EA000D4BF00220122520084F80022039A384411
:105EB0000D2AC4F8FC0100F09980BAF1000F40F0FF
:105EC000988094F8DC31002B00F0B080A169D4F800
:105ED000E43104F5FC70C91A0AF055F880B20028C4
:105EE00000F0A480169B03B1188001200DB0BDE81E
:105EF000F08FD4F8E0116D1A97E7D4F8E411A36994
:105F0000B4F8B421D4F8D801D4F8D0C15B1A5D43F9
:105F1000D4F8E0314244121A3033013A0CFB00331A
:105F200001FB0233A18D94F869003A4601EB43016D
:105F3000FFF7F4FDC4F8E8018BE700BF901A0020DA
:105F400048470A00D4F8E4E1A369A3EB0E035D43DC
:105F500094F88630252B03D094F88730252B0CD16C
:105F6000B4F83C32A9EB03031B0406D4029A94F85C
:105F70003F32002B18BF1A460292049BB4F8B4C1FA
:105F800043B3BCF1000F25D1D4E98623D4E98401C1
:105F9000904271EB030302D34FF4AA6101E794F836
:105FA00069102C4B53F82130D4E98401CDE9040168
:105FB0000498203A121A03F2E7314FF47A7B03F582
:105FC0002343B1FBFBF10A44A133B3FBFBF3D21A29
:105FD000D21B15440CEB08010EFB01F13031029885
:105FE0003A464900A4E74FF4AD61DAE6BAF1000F92
:105FF0001CD0B4F8C80118B3B4F8CA1194F8CC2175
:10600000A4F8CA1101FB0222904201F101050DDD45
:10601000002B0BDD002384F80032A4F8CA51FFF7EF
:106020003FF900F00700013084F8CC0194F8F70143
:1060300004F5FC7104F028FE20B940F2B151B0E63D
:106040000146DBE7069B83F0010384F8F43100206E
:106050004CE700BF48470A00F7B5044618B9E221EB
:106060003020FCF719FB072900F2BC80DFE801F0C3
:106070000484464641BA33B704F0F2FFC4E9400154
:10608000204601F02DF8D4F8F400CB3804F0E4FEFB
:1060900010B940F27B21E3E720460BF05DF905469D
:1060A000F8B9014620460BF080F800F1E506D4F877
:1060B000F400B04209D2301A322838BF322003210E
:1060C00004F0ECFE051E18BF0125C4F8F46020465C
:1060D0000BF05CF93DB1204603B0BDE8F0400BF099
:1060E00056B90025F3E7D4E94023C4E93A2303B0C5
:1060F000F0BD03B0BDE8F04002F05CBF0BF060F80B
:10610000002384F8F93007460E4604F0F7FC072216
:10611000A7FB023502FB0655D4F8EC200192D4F817
:10612000E8209B18019A45EB0205D4F8CC2032B147
:1061300057EA060203D0984271EB050216D20222FA
:1061400084F8F820D4F80821D4F80CC1121A6CEBAA
:10615000010C94F818E1BEF1000F09D1012A7CF17D
:10616000000E11DA204600F0C3FF05E00122E7E748
:10617000012A7CF1000CF5DB94F8C80004F0D8FC8F
:10618000002384F81031B2E7984271EB050E0ED26D
:106190003E430CD01B1A65EB01019A427CEB0100D7
:1061A00005DB012B71F10000A4BF1A468C460F4994
:1061B00094F8C8000123914284F811314FF0000394
:1061C00084F8F03073EB0C03B8BF0A4604F1F00119
:1061D00004F070FF00288AD140F2EF6140E74FF4ED
:1061E00080713DE74FF482713AE700BF0040420FF3
:1061F0002DE9F04104460E46154690F8103103F0A3
:10620000FF071BB10C273846BDE8F081014647481F
:1062100004F0A0FC20288046F4D05722394604F12F
:10622000C90006F09DFF84F8C880C4F8CC60FF2345
:1062300084F8103136B1FFF74BF800F00700013059
:1062400086F8CC0102234FF00008A4F8F83084F857
:10625000F08006F089F800F19E0620460BF07CF8ED
:10626000B6B20146002839D009F031FE00F5CD6103
:1062700089B2284606F026F82844C4F8F40004F051
:106280003DFC301841F10001C4E94001012084F8CF
:10629000D000A4F826800BF01EF9E53D2D1AC4F8B5
:1062A000D4504FF0FF356FF00041D4E94023C4E9EA
:1062B00042510025C4E93823C4E93A2394F8C800C0
:1062C00084F8115142F2107204F1F00104F0F2FE70
:1062D00038BB40F2EB113020FCF7DEF920460AF023
:1062E00064FFDFF84C80E530C4F8F400B8F8020031
:1062F00048B1E08C38B1FEF7EBFFB8F80230B0FBE4
:10630000F3F202FB1300064404F0F8FB361841F1E7
:106310000001C4E94061002DC3D0AD1941F1000175
:10632000C3E7294620460BF034F86CE759600000BB
:10633000901A0020F0B5002385B0CDE90033012389
:106340008DF806306846FCF797FD70B11D4E0123AD
:1063500033710027CDE9027702A8FCF78DFD0546D1
:10636000C8B10023337105B0F0BD00980AF069FD93
:10637000E8E790F8F70104F01BFD94F8F70104F04A
:1063800051FE94F8F70184F8DC5104F0D1FB20238E
:1063900084F8F731DEE7029B002BDDD093F8F7217C
:1063A000202AD9D018884FF6FF739842D9D02946B1
:1063B000FCF728FD04460028DBD140F237113020DD
:1063C000FCF76AF9901A0020054B002201215A714E
:1063D00019701A7142F210725A80FFF7ABBF00BFFA
:1063E000901A0020014B5871704700BF901A00208E
:1063F00008B502F0B3FA044B9A6882422ABF1879B2
:10640000002080F0010008BD901A00202DE9F3471C
:106410000446062900F2DA80DFE801F0048673837F
:106420008A8FD300D0E98401D4E98623904271EBAE
:10643000030354D294F8F631002B50D094F8DC3199
:10644000032B4CD10AF0CAFB94F869A0814609F0ED
:106450003EFD064694F87300FEF704FC064494F8EB
:106460007300FEF7FFFBD4E98423D4F81872D4F844
:10647000B05180465046BF1A02F0D4FE554A52F839
:106480002A20A5F1500302F52342A1324FF47A717C
:10649000B2FBF1F29B1AA3EB09031B1A09F179096C
:1064A00009EB5309B6B2603B08F5C86873431FFA9D
:1064B00088F8B3FBF8F360335A08A9EB53039F4203
:1064C00002D391444F4501D905F03EFFA069314602
:1064D00005F0F8FE0023C4F8E40184F8F6313E4BE1
:1064E0001B7903F0FF0263B90092B4F8A4110123F1
:1064F0002046FFF729FB38B140F21E713020FCF72F
:10650000CBF8042384F8DC3102F03AFC04F0FAFA08
:10651000B4F88020A4F8F2210023A4F82A3284F8E9
:10652000F53102B0BDE8F087032380F8DC31F8E7ED
:106530000BF071F9C4E98601F3E790F86900264F82
:106540000AF054FBB530D4F8E431A56995288CBF26
:106550000020C0F19600C218954288BFED1A7B79E1
:106560008CBF2D1A00251BB9236B9D4228BF1D46E9
:1065700004F13000D4F8B06109F0F3FF06440220C2
:1065800004F046FDAD1B25EAE575854228BF0546AA
:106590000221284604F082FC00B92E44012340F277
:1065A0004512314620460AF039F8D4F8B031B860C7
:1065B000A069184404F050FC0028B2D140F2A33185
:1065C0009CE702B0BDE8F0470AF020BB40F2ED7155
:1065D00094E700BF48470A00901A00202DE9704355
:1065E0000C4615466ABB0246174994F8C80004F0E9
:1065F000DBFA20B940F2FD713020FCF74DF802F0D3
:10660000ADF9D4E94089064684F8D05084F8105199
:106610000121D4F8CC00FEF7B5FAD4F8CC00C0E9DB
:10662000848994F8C83080F8F731C0E98889C0F8C7
:106630002C620AF0DBFB02F0A3FBBDE8704304F020
:1066400061BA40F61801D7E7270C0100014B5880CA
:10665000704700BF901A0020074A03461068D3F81D
:106660005120C0F80320B3F85520A0F8072093F874
:10667000501009F0E9BD00BF9C1A002070B5044617
:106680000E466588407F15F00401134618BF04F1DB
:106690005F013246FEF7C8F94107054621D4C2071B
:1066A0000BD5012384F85030607FFEF721FA036890
:1066B000C4F851308388A4F85530AB0701D40120C9
:1066C00070BD094B1868D4F85F30012184F85E1062
:1066D000C0F80930B4F86330A0F80D3009F0BDFD02
:1066E000EDE70020ECE700BF9C1A002038B5C38D11
:1066F0000F4D0133C3F30E03C385AB7C04462BB1AE
:1067000002F00AFC01F030FD0023AB7400232B7172
:1067100094F871302BB101212046BDE838400AF0D1
:106720003CBC637C13B1E28D9A42F4D20021F3E7C2
:106730009C1A002010B5094C2379012B02D0237933
:10674000022B05D1A37C1BB102F0E6FB01F00CFD8E
:10675000E069BDE81040FFF7C9BF00BF9C1A0020E8
:1067600070B5294C2379012B07D02379022B04D053
:1067700040F65C412D20FBF78FFFA0B90125A37CDB
:106780001BB102F0C9FB01F0EFFC002D3AD0E0692B
:106790000AF07CFB002830D002F0A0FA236ABDE8A2
:1067A00070409B6818472168E26911F8095B02F1A3
:1067B0005103E80992F8502009F099FB0028DDD038
:1067C0002068002109F06EFD0028D7D02379E06908
:1067D000012B05D02379022B02D040F63541C9E7C1
:1067E0002379226A03F180435269013B05F00F01CE
:1067F00052F8233098470546C1E7E069BDE870408C
:10680000FFF774BF70BD00BF9C1A0020074A034603
:10681000D06903B909B9FFF769BF1379126A03F1A7
:1068200080431269033B52F8233018479C1A00201A
:106830002DE9F043032985B00546174607D1438863
:10684000980723D40024204605B0BDE8F083428891
:1068500090F87030D107DBB2F4D5002BF2D14FF0B5
:106860000108DFF8D49099F81260C6B109F074FB02
:106870000828387016D002AA0DF10701FEF7AAF811
:1068800038B940F6D4612D20FBF706FF4FF002081F
:10689000E7E79DF8070002A90AF096F906463B785B
:1068A000082B08D1D9F8001011F8030BC0F38010A1
:1068B0000AF08AF90646D9F8001095F8572011F821
:1068C000030B05F15803C0F3801009F010FBD9F851
:1068D0000010044611F8030BC0F3801009F032FBDE
:1068E0008146FEF717F940B1B9F1080F1BD04846B1
:1068F000FEF742F880F00103D8B23A78082A14D0A3
:106900001CB96C7FA21A544254416A8853079AD426
:10691000002897D176B9EC7C444518BF002C0CBFF9
:10692000012400248FE70020E7E780F001022240E5
:10693000D4B2EAE7344686E79C1A00202DE9F04FEE
:1069400085B008230DF10702052104468DF80730B4
:10695000FFF76EFF064620B90026304605B0BDE8B9
:10696000F08F744F3968FA7C11F8030B07F11403A8
:10697000C0F3801009F0BBFA80460028ECD13B68D8
:10698000216A184691F88E2010F8035B02EA55122E
:1069900002F0010281F88E20D3F80320C1F8032011
:1069A0008288A1F807201D46226A15F81F1BC1F333
:1069B00080119170D3F81F00029002A92879087104
:1069C000D3F80F00D061587D1D7D000440EA0520FA
:1069D000DD7C28435062B3F8190082F8728040F2DF
:1069E000E24909FB00F090619D7DC5EB451005EB88
:1069F000800505EB85056D009585B3F8170009FB4B
:106A000000F09062B3F81B001084B3F81D005084AE
:106A100093F8243003F01F005B0982F89A0082F893
:106A20007330256A94F912A005F18E0009F068FB15
:106A300040F20113A5F868304FF0FF0B85F86AB0FB
:106A4000414605F13000FEF7B3FB51462846FEF7FC
:106A5000FFF8236A84F87B801A88A4F87C2084F8E5
:106A600099B04FF6FF72A4F89A209A69B2FBF9F236
:106A7000A4F892201A8CA4F894205A8CA4F896209A
:106A800093F8732084F89820227F9DF8070004F182
:106A900086015AB394F85020012A27D194F8562041
:106AA00002F0C002402A21D1D4F85120C4F8862037
:106AB000B4F855208A809A7884F87F20082803F15A
:106AC000030504F18C01D3F8033004F1800227D0D0
:106AD000C4F88C30AB888B8004F17F01FDF77AFF1E
